{
  "_format": "hh-sol-artifact-1",
  "contractName": "ERC721Token",
  "sourceName": "contracts/ERC721Token.sol",
  "abi": [
    {
      "inputs": [],
      "stateMutability": "nonpayable",
      "type": "constructor"
    },
    {
      "anonymous": false,
      "inputs": [
        {
          "indexed": true,
          "internalType": "address",
          "name": "owner",
          "type": "address"
        },
        {
          "indexed": true,
          "internalType": "address",
          "name": "approved",
          "type": "address"
        },
        {
          "indexed": true,
          "internalType": "uint256",
          "name": "tokenId",
          "type": "uint256"
        }
      ],
      "name": "Approval",
      "type": "event"
    },
    {
      "anonymous": false,
      "inputs": [
        {
          "indexed": true,
          "internalType": "address",
          "name": "owner",
          "type": "address"
        },
        {
          "indexed": true,
          "internalType": "address",
          "name": "operator",
          "type": "address"
        },
        {
          "indexed": false,
          "internalType": "bool",
          "name": "approved",
          "type": "bool"
        }
      ],
      "name": "ApprovalForAll",
      "type": "event"
    },
    {
      "anonymous": false,
      "inputs": [
        {
          "indexed": true,
          "internalType": "address",
          "name": "previousOwner",
          "type": "address"
        },
        {
          "indexed": true,
          "internalType": "address",
          "name": "newOwner",
          "type": "address"
        }
      ],
      "name": "OwnershipTransferred",
      "type": "event"
    },
    {
      "anonymous": false,
      "inputs": [
        {
          "indexed": true,
          "internalType": "address",
          "name": "from",
          "type": "address"
        },
        {
          "indexed": true,
          "internalType": "address",
          "name": "to",
          "type": "address"
        },
        {
          "indexed": true,
          "internalType": "uint256",
          "name": "tokenId",
          "type": "uint256"
        }
      ],
      "name": "Transfer",
      "type": "event"
    },
    {
      "inputs": [
        {
          "internalType": "address",
          "name": "to",
          "type": "address"
        },
        {
          "internalType": "uint256",
          "name": "tokenId",
          "type": "uint256"
        }
      ],
      "name": "approve",
      "outputs": [],
      "stateMutability": "nonpayable",
      "type": "function"
    },
    {
      "inputs": [
        {
          "internalType": "address",
          "name": "owner",
          "type": "address"
        }
      ],
      "name": "balanceOf",
      "outputs": [
        {
          "internalType": "uint256",
          "name": "",
          "type": "uint256"
        }
      ],
      "stateMutability": "view",
      "type": "function"
    },
    {
      "inputs": [],
      "name": "faucet",
      "outputs": [],
      "stateMutability": "nonpayable",
      "type": "function"
    },
    {
      "inputs": [
        {
          "internalType": "uint256",
          "name": "tokenId",
          "type": "uint256"
        }
      ],
      "name": "getApproved",
      "outputs": [
        {
          "internalType": "address",
          "name": "",
          "type": "address"
        }
      ],
      "stateMutability": "view",
      "type": "function"
    },
    {
      "inputs": [
        {
          "internalType": "address",
          "name": "owner",
          "type": "address"
        },
        {
          "internalType": "address",
          "name": "operator",
          "type": "address"
        }
      ],
      "name": "isApprovedForAll",
      "outputs": [
        {
          "internalType": "bool",
          "name": "",
          "type": "bool"
        }
      ],
      "stateMutability": "view",
      "type": "function"
    },
    {
      "inputs": [],
      "name": "name",
      "outputs": [
        {
          "internalType": "string",
          "name": "",
          "type": "string"
        }
      ],
      "stateMutability": "view",
      "type": "function"
    },
    {
      "inputs": [],
      "name": "owner",
      "outputs": [
        {
          "internalType": "address",
          "name": "",
          "type": "address"
        }
      ],
      "stateMutability": "view",
      "type": "function"
    },
    {
      "inputs": [
        {
          "internalType": "uint256",
          "name": "tokenId",
          "type": "uint256"
        }
      ],
      "name": "ownerOf",
      "outputs": [
        {
          "internalType": "address",
          "name": "",
          "type": "address"
        }
      ],
      "stateMutability": "view",
      "type": "function"
    },
    {
      "inputs": [],
      "name": "renounceOwnership",
      "outputs": [],
      "stateMutability": "nonpayable",
      "type": "function"
    },
    {
      "inputs": [
        {
          "internalType": "address",
          "name": "from",
          "type": "address"
        },
        {
          "internalType": "address",
          "name": "to",
          "type": "address"
        },
        {
          "internalType": "uint256",
          "name": "tokenId",
          "type": "uint256"
        }
      ],
      "name": "safeTransferFrom",
      "outputs": [],
      "stateMutability": "nonpayable",
      "type": "function"
    },
    {
      "inputs": [
        {
          "internalType": "address",
          "name": "from",
          "type": "address"
        },
        {
          "internalType": "address",
          "name": "to",
          "type": "address"
        },
        {
          "internalType": "uint256",
          "name": "tokenId",
          "type": "uint256"
        },
        {
          "internalType": "bytes",
          "name": "_data",
          "type": "bytes"
        }
      ],
      "name": "safeTransferFrom",
      "outputs": [],
      "stateMutability": "nonpayable",
      "type": "function"
    },
    {
      "inputs": [
        {
          "internalType": "address",
          "name": "operator",
          "type": "address"
        },
        {
          "internalType": "bool",
          "name": "approved",
          "type": "bool"
        }
      ],
      "name": "setApprovalForAll",
      "outputs": [],
      "stateMutability": "nonpayable",
      "type": "function"
    },
    {
      "inputs": [
        {
          "internalType": "string",
          "name": "uri",
          "type": "string"
        }
      ],
      "name": "setBaseUri",
      "outputs": [],
      "stateMutability": "nonpayable",
      "type": "function"
    },
    {
      "inputs": [
        {
          "internalType": "bytes4",
          "name": "interfaceId",
          "type": "bytes4"
        }
      ],
      "name": "supportsInterface",
      "outputs": [
        {
          "internalType": "bool",
          "name": "",
          "type": "bool"
        }
      ],
      "stateMutability": "view",
      "type": "function"
    },
    {
      "inputs": [],
      "name": "symbol",
      "outputs": [
        {
          "internalType": "string",
          "name": "",
          "type": "string"
        }
      ],
      "stateMutability": "view",
      "type": "function"
    },
    {
      "inputs": [
        {
          "internalType": "uint256",
          "name": "tokenId",
          "type": "uint256"
        }
      ],
      "name": "tokenURI",
      "outputs": [
        {
          "internalType": "string",
          "name": "",
          "type": "string"
        }
      ],
      "stateMutability": "view",
      "type": "function"
    },
    {
      "inputs": [
        {
          "internalType": "address",
          "name": "from",
          "type": "address"
        },
        {
          "internalType": "address",
          "name": "to",
          "type": "address"
        },
        {
          "internalType": "uint256",
          "name": "tokenId",
          "type": "uint256"
        }
      ],
      "name": "transferFrom",
      "outputs": [],
      "stateMutability": "nonpayable",
      "type": "function"
    },
    {
      "inputs": [
        {
          "internalType": "address",
          "name": "newOwner",
          "type": "address"
        }
      ],
      "name": "transferOwnership",
      "outputs": [],
      "stateMutability": "nonpayable",
      "type": "function"
    }
  ],
  "bytecode": "0x608060405260006007553480156200001657600080fd5b506040805180820182526004808252634537323160e01b6020808401828152855180870190965292855284015281519192916200005691600091620000e5565b5080516200006c906001906020840190620000e5565b50505062000089620000836200008f60201b60201c565b62000093565b620001c8565b3390565b600680546001600160a01b038381166001600160a01b0319831681179093556040519116919082907f8be0079c531659141344cd1fd0a4f28419497f9722a3daafe3b4186f6b6457e090600090a35050565b828054620000f3906200018b565b90600052602060002090601f01602090048101928262000117576000855562000162565b82601f106200013257805160ff191683800117855562000162565b8280016001018555821562000162579182015b828111156200016257825182559160200191906001019062000145565b506200017092915062000174565b5090565b5b8082111562000170576000815560010162000175565b600181811c90821680620001a057607f821691505b60208210811415620001c257634e487b7160e01b600052602260045260246000fd5b50919050565b6116d280620001d86000396000f3fe608060405234801561001057600080fd5b50600436106101165760003560e01c80638da5cb5b116100a2578063b88d4fde11610071578063b88d4fde14610239578063c87b56dd1461024c578063de5f72fd1461025f578063e985e9c514610267578063f2fde38b146102a357600080fd5b80638da5cb5b146101fa57806395d89b411461020b578063a0bcfc7f14610213578063a22cb4651461022657600080fd5b806323b872dd116100e957806323b872dd1461019857806342842e0e146101ab5780636352211e146101be57806370a08231146101d1578063715018a6146101f257600080fd5b806301ffc9a71461011b57806306fdde0314610143578063081812fc14610158578063095ea7b314610183575b600080fd5b61012e6101293660046110c5565b6102b6565b60405190151581526020015b60405180910390f35b61014b610308565b60405161013a9190611141565b61016b610166366004611154565b61039a565b6040516001600160a01b03909116815260200161013a565b610196610191366004611189565b610434565b005b6101966101a63660046111b3565b61054a565b6101966101b93660046111b3565b61057b565b61016b6101cc366004611154565b610596565b6101e46101df3660046111ef565b61060d565b60405190815260200161013a565b610196610694565b6006546001600160a01b031661016b565b61014b6106fa565b610196610221366004611296565b610709565b6101966102343660046112df565b610720565b61019661024736600461131b565b61072b565b61014b61025a366004611154565b610763565b610196610797565b61012e610275366004611397565b6001600160a01b03918216600090815260056020908152604080832093909416825291909152205460ff1690565b6101966102b13660046111ef565b6107b8565b60006001600160e01b031982166380ac58cd60e01b14806102e757506001600160e01b03198216635b5e139f60e01b145b8061030257506301ffc9a760e01b6001600160e01b03198316145b92915050565b606060008054610317906113ca565b80601f0160208091040260200160405190810160405280929190818152602001828054610343906113ca565b80156103905780601f1061036557610100808354040283529160200191610390565b820191906000526020600020905b81548152906001019060200180831161037357829003601f168201915b5050505050905090565b6000818152600260205260408120546001600160a01b03166104185760405162461bcd60e51b815260206004820152602c60248201527f4552433732313a20617070726f76656420717565727920666f72206e6f6e657860448201526b34b9ba32b73a103a37b5b2b760a11b60648201526084015b60405180910390fd5b506000908152600460205260409020546001600160a01b031690565b600061043f82610596565b9050806001600160a01b0316836001600160a01b031614156104ad5760405162461bcd60e51b815260206004820152602160248201527f4552433732313a20617070726f76616c20746f2063757272656e74206f776e656044820152603960f91b606482015260840161040f565b336001600160a01b03821614806104c957506104c98133610275565b61053b5760405162461bcd60e51b815260206004820152603860248201527f4552433732313a20617070726f76652063616c6c6572206973206e6f74206f7760448201527f6e6572206e6f7220617070726f76656420666f7220616c6c0000000000000000606482015260840161040f565b6105458383610883565b505050565b61055433826108f1565b6105705760405162461bcd60e51b815260040161040f90611405565b6105458383836109e8565b6105458383836040518060200160405280600081525061072b565b6000818152600260205260408120546001600160a01b0316806103025760405162461bcd60e51b815260206004820152602960248201527f4552433732313a206f776e657220717565727920666f72206e6f6e657869737460448201526832b73a103a37b5b2b760b91b606482015260840161040f565b60006001600160a01b0382166106785760405162461bcd60e51b815260206004820152602a60248201527f4552433732313a2062616c616e636520717565727920666f7220746865207a65604482015269726f206164647265737360b01b606482015260840161040f565b506001600160a01b031660009081526003602052604090205490565b6006546001600160a01b031633146106ee5760405162461bcd60e51b815260206004820181905260248201527f4f776e61626c653a2063616c6c6572206973206e6f7420746865206f776e6572604482015260640161040f565b6106f86000610b84565b565b606060018054610317906113ca565b805161071c906008906020840190611016565b5050565b61071c338383610bd6565b61073533836108f1565b6107515760405162461bcd60e51b815260040161040f90611405565b61075d84848484610ca5565b50505050565b6060600861077083610cd8565b604051602001610781929190611472565b6040516020818303038152906040529050919050565b600780549060006107a783611552565b91905055506106f833600754610dd6565b6006546001600160a01b031633146108125760405162461bcd60e51b815260206004820181905260248201527f4f776e61626c653a2063616c6c6572206973206e6f7420746865206f776e6572604482015260640161040f565b6001600160a01b0381166108775760405162461bcd60e51b815260206004820152602660248201527f4f776e61626c653a206e6577206f776e657220697320746865207a65726f206160448201526564647265737360d01b606482015260840161040f565b61088081610b84565b50565b600081815260046020526040902080546001600160a01b0319166001600160a01b03841690811790915581906108b882610596565b6001600160a01b03167f8c5be1e5ebec7d5bd14f71427d1e84f3dd0314c0f7b2291e5b200ac8c7c3b92560405160405180910390a45050565b6000818152600260205260408120546001600160a01b031661096a5760405162461bcd60e51b815260206004820152602c60248201527f4552433732313a206f70657261746f7220717565727920666f72206e6f6e657860448201526b34b9ba32b73a103a37b5b2b760a11b606482015260840161040f565b600061097583610596565b9050806001600160a01b0316846001600160a01b031614806109b05750836001600160a01b03166109a58461039a565b6001600160a01b0316145b806109e057506001600160a01b0380821660009081526005602090815260408083209388168352929052205460ff165b949350505050565b826001600160a01b03166109fb82610596565b6001600160a01b031614610a5f5760405162461bcd60e51b815260206004820152602560248201527f4552433732313a207472616e736665722066726f6d20696e636f72726563742060448201526437bbb732b960d91b606482015260840161040f565b6001600160a01b038216610ac15760405162461bcd60e51b8152602060048201526024808201527f4552433732313a207472616e7366657220746f20746865207a65726f206164646044820152637265737360e01b606482015260840161040f565b610acc600082610883565b6001600160a01b0383166000908152600360205260408120805460019290610af590849061156d565b90915550506001600160a01b0382166000908152600360205260408120805460019290610b23908490611584565b909155505060008181526002602052604080822080546001600160a01b0319166001600160a01b0386811691821790925591518493918716917fddf252ad1be2c89b69c2b068fc378daa952ba7f163c4a11628f55a4df523b3ef91a4505050565b600680546001600160a01b038381166001600160a01b0319831681179093556040519116919082907f8be0079c531659141344cd1fd0a4f28419497f9722a3daafe3b4186f6b6457e090600090a35050565b816001600160a01b0316836001600160a01b03161415610c385760405162461bcd60e51b815260206004820152601960248201527f4552433732313a20617070726f766520746f2063616c6c657200000000000000604482015260640161040f565b6001600160a01b03838116600081815260056020908152604080832094871680845294825291829020805460ff191686151590811790915591519182527f17307eab39ab6107e8899845ad3d59bd9653f200f220920489ca2b5937696c31910160405180910390a3505050565b610cb08484846109e8565b610cbc84848484610f18565b61075d5760405162461bcd60e51b815260040161040f9061159c565b606081610cfc5750506040805180820190915260018152600360fc1b602082015290565b8160005b8115610d265780610d1081611552565b9150610d1f9050600a83611604565b9150610d00565b60008167ffffffffffffffff811115610d4157610d4161120a565b6040519080825280601f01601f191660200182016040528015610d6b576020820181803683370190505b5090505b84156109e057610d8060018361156d565b9150610d8d600a86611618565b610d98906030611584565b60f81b818381518110610dad57610dad61162c565b60200101906001600160f81b031916908160001a905350610dcf600a86611604565b9450610d6f565b6001600160a01b038216610e2c5760405162461bcd60e51b815260206004820181905260248201527f4552433732313a206d696e7420746f20746865207a65726f2061646472657373604482015260640161040f565b6000818152600260205260409020546001600160a01b031615610e915760405162461bcd60e51b815260206004820152601c60248201527f4552433732313a20746f6b656e20616c7265616479206d696e74656400000000604482015260640161040f565b6001600160a01b0382166000908152600360205260408120805460019290610eba908490611584565b909155505060008181526002602052604080822080546001600160a01b0319166001600160a01b03861690811790915590518392907fddf252ad1be2c89b69c2b068fc378daa952ba7f163c4a11628f55a4df523b3ef908290a45050565b60006001600160a01b0384163b1561100b57604051630a85bd0160e11b81526001600160a01b0385169063150b7a0290610f5c903390899088908890600401611642565b6020604051808303816000875af1925050508015610f97575060408051601f3d908101601f19168201909252610f949181019061167f565b60015b610ff1573d808015610fc5576040519150601f19603f3d011682016040523d82523d6000602084013e610fca565b606091505b508051610fe95760405162461bcd60e51b815260040161040f9061159c565b805181602001fd5b6001600160e01b031916630a85bd0160e11b1490506109e0565b506001949350505050565b828054611022906113ca565b90600052602060002090601f016020900481019282611044576000855561108a565b82601f1061105d57805160ff191683800117855561108a565b8280016001018555821561108a579182015b8281111561108a57825182559160200191906001019061106f565b5061109692915061109a565b5090565b5b80821115611096576000815560010161109b565b6001600160e01b03198116811461088057600080fd5b6000602082840312156110d757600080fd5b81356110e2816110af565b9392505050565b60005b838110156111045781810151838201526020016110ec565b8381111561075d5750506000910152565b6000815180845261112d8160208601602086016110e9565b601f01601f19169290920160200192915050565b6020815260006110e26020830184611115565b60006020828403121561116657600080fd5b5035919050565b80356001600160a01b038116811461118457600080fd5b919050565b6000806040838503121561119c57600080fd5b6111a58361116d565b946020939093013593505050565b6000806000606084860312156111c857600080fd5b6111d18461116d565b92506111df6020850161116d565b9150604084013590509250925092565b60006020828403121561120157600080fd5b6110e28261116d565b634e487b7160e01b600052604160045260246000fd5b600067ffffffffffffffff8084111561123b5761123b61120a565b604051601f8501601f19908116603f011681019082821181831017156112635761126361120a565b8160405280935085815286868601111561127c57600080fd5b858560208301376000602087830101525050509392505050565b6000602082840312156112a857600080fd5b813567ffffffffffffffff8111156112bf57600080fd5b8201601f810184136112d057600080fd5b6109e084823560208401611220565b600080604083850312156112f257600080fd5b6112fb8361116d565b91506020830135801515811461131057600080fd5b809150509250929050565b6000806000806080858703121561133157600080fd5b61133a8561116d565b93506113486020860161116d565b925060408501359150606085013567ffffffffffffffff81111561136b57600080fd5b8501601f8101871361137c57600080fd5b61138b87823560208401611220565b91505092959194509250565b600080604083850312156113aa57600080fd5b6113b38361116d565b91506113c16020840161116d565b90509250929050565b600181811c908216806113de57607f821691505b602082108114156113ff57634e487b7160e01b600052602260045260246000fd5b50919050565b60208082526031908201527f4552433732313a207472616e736665722063616c6c6572206973206e6f74206f6040820152701ddb995c881b9bdc88185c1c1c9bdd9959607a1b606082015260800190565b600081516114688185602086016110e9565b9290920192915050565b600080845481600182811c91508083168061148e57607f831692505b60208084108214156114ae57634e487b7160e01b86526022600452602486fd5b8180156114c257600181146114d357611500565b60ff19861689528489019650611500565b60008b81526020902060005b868110156114f85781548b8201529085019083016114df565b505084890196505b50505050505061153361152361151d83602f60f81b815260010190565b86611456565b632e706e6760e01b815260040190565b95945050505050565b634e487b7160e01b600052601160045260246000fd5b60006000198214156115665761156661153c565b5060010190565b60008282101561157f5761157f61153c565b500390565b600082198211156115975761159761153c565b500190565b60208082526032908201527f4552433732313a207472616e7366657220746f206e6f6e20455243373231526560408201527131b2b4bb32b91034b6b83632b6b2b73a32b960711b606082015260800190565b634e487b7160e01b600052601260045260246000fd5b600082611613576116136115ee565b500490565b600082611627576116276115ee565b500690565b634e487b7160e01b600052603260045260246000fd5b6001600160a01b038581168252841660208201526040810183905260806060820181905260009061167590830184611115565b9695505050505050565b60006020828403121561169157600080fd5b81516110e2816110af56fea264697066735822122092a2e84069fa3a1f8f2f58004588885b5bfdb57f58ce0e822da0bc44b80842c964736f6c634300080c0033",
  "linkReferences": {},
  "deployedLinkReferences": {}
}