{
  "_format": "hh-sol-artifact-1",
  "contractName": "NFTStaking",
  "sourceName": "contracts/Staking.sol",
  "abi": [
    {
      "inputs": [
        {
          "internalType": "contract IRegistry",
          "name": "_protocol",
          "type": "address"
        },
        {
          "internalType": "address",
          "name": "_token",
          "type": "address"
        },
        {
          "internalType": "address",
          "name": "_rewardToken",
          "type": "address"
        }
      ],
      "stateMutability": "nonpayable",
      "type": "constructor"
    },
    {
      "anonymous": false,
      "inputs": [
        {
          "indexed": true,
          "internalType": "address",
          "name": "previousOwner",
          "type": "address"
        },
        {
          "indexed": true,
          "internalType": "address",
          "name": "newOwner",
          "type": "address"
        }
      ],
      "name": "OwnershipTransferred",
      "type": "event"
    },
    {
      "anonymous": false,
      "inputs": [
        {
          "indexed": true,
          "internalType": "address",
          "name": "user",
          "type": "address"
        },
        {
          "indexed": true,
          "internalType": "uint256",
          "name": "tokenId",
          "type": "uint256"
        }
      ],
      "name": "Stake",
      "type": "event"
    },
    {
      "anonymous": false,
      "inputs": [
        {
          "indexed": true,
          "internalType": "address",
          "name": "user",
          "type": "address"
        },
        {
          "indexed": true,
          "internalType": "uint256",
          "name": "tokenId",
          "type": "uint256"
        }
      ],
      "name": "Unstake",
      "type": "event"
    },
    {
      "inputs": [],
      "name": "availableProtocol",
      "outputs": [
        {
          "internalType": "contract IRegistry",
          "name": "",
          "type": "address"
        }
      ],
      "stateMutability": "view",
      "type": "function"
    },
    {
      "inputs": [],
      "name": "availableToken",
      "outputs": [
        {
          "internalType": "address",
          "name": "",
          "type": "address"
        }
      ],
      "stateMutability": "view",
      "type": "function"
    },
    {
      "inputs": [
        {
          "internalType": "uint256",
          "name": "_tokenID",
          "type": "uint256"
        },
        {
          "internalType": "uint256",
          "name": "_rentingID",
          "type": "uint256"
        }
      ],
      "name": "claimNFT",
      "outputs": [],
      "stateMutability": "nonpayable",
      "type": "function"
    },
    {
      "inputs": [
        {
          "internalType": "uint256",
          "name": "_tokenID",
          "type": "uint256"
        },
        {
          "internalType": "uint256",
          "name": "_amount",
          "type": "uint256"
        }
      ],
      "name": "claimRewards",
      "outputs": [],
      "stateMutability": "nonpayable",
      "type": "function"
    },
    {
      "inputs": [],
      "name": "getAllStakedNFT",
      "outputs": [
        {
          "components": [
            {
              "internalType": "bool",
              "name": "staked",
              "type": "bool"
            },
            {
              "internalType": "address",
              "name": "stakerAddress",
              "type": "address"
            },
            {
              "internalType": "uint256",
              "name": "expirationTime",
              "type": "uint256"
            },
            {
              "internalType": "uint256",
              "name": "totalYield",
              "type": "uint256"
            },
            {
              "internalType": "uint256",
              "name": "harvestedYield",
              "type": "uint256"
            },
            {
              "internalType": "bool",
              "name": "inLease",
              "type": "bool"
            },
            {
              "internalType": "uint256",
              "name": "lendingID",
              "type": "uint256"
            }
          ],
          "internalType": "struct NFTStaking.StakeInfo[]",
          "name": "",
          "type": "tuple[]"
        }
      ],
      "stateMutability": "view",
      "type": "function"
    },
    {
      "inputs": [],
      "name": "getStakedNFTLength",
      "outputs": [
        {
          "internalType": "uint256",
          "name": "",
          "type": "uint256"
        }
      ],
      "stateMutability": "view",
      "type": "function"
    },
    {
      "inputs": [
        {
          "internalType": "uint256",
          "name": "_tokenID",
          "type": "uint256"
        },
        {
          "internalType": "uint8",
          "name": "_rentDuration",
          "type": "uint8"
        }
      ],
      "name": "leaseNFT",
      "outputs": [],
      "stateMutability": "nonpayable",
      "type": "function"
    },
    {
      "inputs": [
        {
          "internalType": "address",
          "name": "",
          "type": "address"
        },
        {
          "internalType": "address",
          "name": "",
          "type": "address"
        },
        {
          "internalType": "uint256",
          "name": "",
          "type": "uint256"
        },
        {
          "internalType": "bytes",
          "name": "",
          "type": "bytes"
        }
      ],
      "name": "onERC721Received",
      "outputs": [
        {
          "internalType": "bytes4",
          "name": "",
          "type": "bytes4"
        }
      ],
      "stateMutability": "nonpayable",
      "type": "function"
    },
    {
      "inputs": [],
      "name": "owner",
      "outputs": [
        {
          "internalType": "address",
          "name": "",
          "type": "address"
        }
      ],
      "stateMutability": "view",
      "type": "function"
    },
    {
      "inputs": [],
      "name": "renounceOwnership",
      "outputs": [],
      "stateMutability": "nonpayable",
      "type": "function"
    },
    {
      "inputs": [],
      "name": "rewardToken",
      "outputs": [
        {
          "internalType": "address",
          "name": "",
          "type": "address"
        }
      ],
      "stateMutability": "view",
      "type": "function"
    },
    {
      "inputs": [
        {
          "internalType": "uint256",
          "name": "_tokenId",
          "type": "uint256"
        },
        {
          "internalType": "uint256",
          "name": "expirationTime",
          "type": "uint256"
        }
      ],
      "name": "stake",
      "outputs": [],
      "stateMutability": "nonpayable",
      "type": "function"
    },
    {
      "inputs": [
        {
          "internalType": "address",
          "name": "",
          "type": "address"
        },
        {
          "internalType": "uint256",
          "name": "",
          "type": "uint256"
        }
      ],
      "name": "stakedTokens",
      "outputs": [
        {
          "internalType": "uint256",
          "name": "",
          "type": "uint256"
        }
      ],
      "stateMutability": "view",
      "type": "function"
    },
    {
      "inputs": [
        {
          "internalType": "uint256",
          "name": "",
          "type": "uint256"
        }
      ],
      "name": "stakers",
      "outputs": [
        {
          "internalType": "address",
          "name": "",
          "type": "address"
        }
      ],
      "stateMutability": "view",
      "type": "function"
    },
    {
      "inputs": [
        {
          "internalType": "uint256",
          "name": "",
          "type": "uint256"
        }
      ],
      "name": "stakes",
      "outputs": [
        {
          "internalType": "bool",
          "name": "staked",
          "type": "bool"
        },
        {
          "internalType": "address",
          "name": "stakerAddress",
          "type": "address"
        },
        {
          "internalType": "uint256",
          "name": "expirationTime",
          "type": "uint256"
        },
        {
          "internalType": "uint256",
          "name": "totalYield",
          "type": "uint256"
        },
        {
          "internalType": "uint256",
          "name": "harvestedYield",
          "type": "uint256"
        },
        {
          "internalType": "bool",
          "name": "inLease",
          "type": "bool"
        },
        {
          "internalType": "uint256",
          "name": "lendingID",
          "type": "uint256"
        }
      ],
      "stateMutability": "view",
      "type": "function"
    },
    {
      "inputs": [
        {
          "internalType": "address",
          "name": "newOwner",
          "type": "address"
        }
      ],
      "name": "transferOwnership",
      "outputs": [],
      "stateMutability": "nonpayable",
      "type": "function"
    },
    {
      "inputs": [
        {
          "internalType": "uint256",
          "name": "_tokenId",
          "type": "uint256"
        }
      ],
      "name": "unstake",
      "outputs": [],
      "stateMutability": "nonpayable",
      "type": "function"
    }
  ],
  "bytecode": "0x60806040523480156200001157600080fd5b5060405162001ecb38038062001ecb8339810160408190526200003491620000d2565b6200003f3362000082565b600180546001600160a01b039485166001600160a01b0319918216179091556002805493851693821693909317909255600380549190931691161790556200013f565b600080546001600160a01b038381166001600160a01b0319831681178455604051919092169283917f8be0079c531659141344cd1fd0a4f28419497f9722a3daafe3b4186f6b6457e09190a35050565b600080600060608486031215620000e857600080fd5b8351620000f58162000126565b6020850151909350620001088162000126565b60408501519092506200011b8162000126565b809150509250925092565b6001600160a01b03811681146200013c57600080fd5b50565b611d7c806200014f6000396000f3fe608060405234801561001057600080fd5b506004361061010b5760003560e01c80637a6b8ade116100a2578063d5a44f8611610071578063d5a44f861461022f578063e81c7127146102c9578063f2fde38b146102dc578063f7c618c1146102ef578063fd5e6dd11461030257600080fd5b80637a6b8ade146101e35780637b0472f0146101f65780638da5cb5b14610209578063ce7857be1461021a57600080fd5b8063564b28a0116100de578063564b28a0146101a2578063594dd432146101b55780635b691ea1146101c8578063715018a6146101db57600080fd5b8063150b7a02146101105780632e17de781461014c5780634bfb2785146101615780634c91d0ef1461018c575b600080fd5b61012e61011e36600461171a565b630a85bd0160e11b949350505050565b6040516001600160e01b031990911681526020015b60405180910390f35b61015f61015a366004611842565b610315565b005b600154610174906001600160a01b031681565b6040516001600160a01b039091168152602001610143565b6101946105e9565b604051908152602001610143565b600254610174906001600160a01b031681565b61015f6101c3366004611874565b610659565b61015f6101d6366004611896565b6107dc565b61015f610d0b565b61015f6101f1366004611874565b610d41565b61015f610204366004611874565b6111af565b6000546001600160a01b0316610174565b610222611352565b6040516101439190611b7d565b61028861023d366004611842565b600460208190526000918252604090912080546001820154600283015460038401549484015460059094015460ff808516966101009095046001600160a01b03169593949293169087565b6040805197151588526001600160a01b0390961660208801529486019390935260608501919091526080840152151560a083015260c082015260e001610143565b6101946102d73660046117f6565b611596565b61015f6102ea3660046116f8565b6115c7565b600354610174906001600160a01b031681565b610174610310366004611842565b611662565b60008181526004602052604090205461010090046001600160a01b0316331461037c5760405162461bcd60e51b815260206004820152601460248201527329b2b73232b91034b9903737ba1039ba30b5b2b960611b60448201526064015b60405180910390fd5b60008181526004602052604090205460ff166103cd5760405162461bcd60e51b815260206004820152601060248201526f556e7374616b656420616c726561647960801b6044820152606401610373565b6000818152600460208190526040909120015460ff161561041f5760405162461bcd60e51b815260206004820152600c60248201526b4e6f7720696e206c6561736560a01b6044820152606401610373565b600081815260046020526040812080546001600160a81b03191690555b3360009081526005602052604090205481101561054e5733600090815260056020526040902080548391908390811061047757610477611d1a565b9060005260206000200154141561053e57336000908152600560205260408120546104a490600190611ca6565b336000908152600560205260409020805491925090829081106104c9576104c9611d1a565b6000918252602080832090910154338352600590915260409091208054849081106104f6576104f6611d1a565b600091825260208083209091019290925533815260059091526040902080548061052257610522611d04565b600190038181906000526020600020016000905590555061054e565b61054781611cbd565b905061043c565b50604051819033907f85082129d87b2fe11527cb1b3b7a520aeb5aa6913f88a3d8757fe40d1db02fdd90600090a3600254604051632142170760e11b8152306004820152336024820152604481018390526001600160a01b03909116906342842e0e90606401600060405180830381600087803b1580156105ce57600080fd5b505af11580156105e2573d6000803e3d6000fd5b5050505050565b60008060005b60065481101561065357600560006006838154811061061057610610611d1a565b60009182526020808320909101546001600160a01b0316835282019290925260400190205461063f9083611c41565b91508061064b81611cbd565b9150506105ef565b50919050565b60008281526004602052604090205461010090046001600160a01b031633146106bb5760405162461bcd60e51b815260206004820152601460248201527329b2b73232b91034b9903737ba1039ba30b5b2b960611b6044820152606401610373565b600082815260046020526040902060038101546002909101546106de9190611ca6565b81111561072d5760405162461bcd60e51b815260206004820152601b60248201527f205f616d6f756e74206d6f726520207468616e207265776172647300000000006044820152606401610373565b6000828152600460205260408120600301805483929061074e908490611c41565b909155505060035460405163a9059cbb60e01b8152336004820152602481018390526001600160a01b039091169063a9059cbb90604401602060405180830381600087803b15801561079f57600080fd5b505af11580156107b3573d6000803e3d6000fd5b505050506040513d601f19601f820116820180604052508101906107d79190611820565b505050565b6000546001600160a01b031633146108065760405162461bcd60e51b815260040161037390611c0c565b6000828152600460205260409020805460ff1661086f5760405162461bcd60e51b815260206004820152602160248201527f5374616b696e673a3a6c656173654e46543a204e4654206e6f74207374616b656044820152601960fa1b6064820152608401610373565b6005810154156108cf5760405162461bcd60e51b815260206004820152602560248201527f5374616b696e673a3a6c656173654e46543a20616c726561647920696e206c656044820152646173696e6760d81b6064820152608401610373565b60018101546108e460ff841662015180611c7b565b6108f39062ffffff1642611c41565b111561094d5760405162461bcd60e51b8152602060048201526024808201527f5374616b696e673a3a6c656173654e46543a20626164205f72656e74447572616044820152633a34b7b760e11b6064820152608401610373565b6040805160018082528183019092526000916020808301908036833701905050905060018160008151811061098457610984611d1a565b6020026020010190600381111561099d5761099d611cee565b908160038111156109b0576109b0611cee565b905250604080516001808252818301909252600091602080830190803683370190505090506000816000815181106109ea576109ea611d1a565b60200260200101906001811115610a0357610a03611cee565b90816001811115610a1657610a16611cee565b90525060408051600180825281830190925260009160208083019080368337505060025482519293506001600160a01b031691839150600090610a5b57610a5b611d1a565b6001600160a01b0392909216602092830291909101909101526040805160018082528183019092526000918160200160208202803683370190505090508681600081518110610aac57610aac611d1a565b6020908102919091010152604080516001808252818301909252600091816020016020820280368337019050509050600181600081518110610af057610af0611d1a565b60209081029190910101526040805160018082528183019092526000918160200160208202803683370190505090508781600081518110610b3357610b33611d1a565b60ff9290921660209283029190910190910152604080516001808252818301909252600091816020016020820280368337019050509050600160e01b81600081518110610b8257610b82611d1a565b6001600160e01b03199092166020928302919091018201526001546040805163166a8e2560e31b815290516001600160a01b039092169263b3547128926004808401938290030181600087803b158015610bdb57600080fd5b505af1158015610bef573d6000803e3d6000fd5b505050506040513d601f19601f82011682018060405250810190610c13919061185b565b600589015560025460015460405163095ea7b360e01b81526001600160a01b039182166004820152602481018d905291169063095ea7b390604401600060405180830381600087803b158015610c6857600080fd5b505af1158015610c7c573d6000803e3d6000fd5b50505050600160009054906101000a90046001600160a01b03166001600160a01b0316631cbb410f8787878787878e6040518863ffffffff1660e01b8152600401610ccd9796959493929190611abf565b600060405180830381600087803b158015610ce757600080fd5b505af1158015610cfb573d6000803e3d6000fd5b5050505050505050505050505050565b6000546001600160a01b03163314610d355760405162461bcd60e51b815260040161037390611c0c565b610d3f600061168c565b565b60408051600180825281830190925260009160208083019080368337019050509050600081600081518110610d7857610d78611d1a565b60200260200101906001811115610d9157610d91611cee565b90816001811115610da457610da4611cee565b90525060408051600180825281830190925260009160208083019080368337505060025482519293506001600160a01b031691839150600090610de957610de9611d1a565b6001600160a01b0392909216602092830291909101909101526040805160018082528183019092526000918160200160208202803683370190505090508481600081518110610e3a57610e3a611d1a565b6020908102919091010152604080516001808252818301909252600091816020016020820280368337505050600087815260046020526040812060050154825192935091839190610e8d57610e8d611d1a565b60209081029190910101526040805160018082528183019092526000918160200160208202803683370190505090508581600081518110610ed057610ed0611d1a565b60209081029190910101526003546040516370a0823160e01b81523060048201526000916001600160a01b0316906370a082319060240160206040518083038186803b158015610f1f57600080fd5b505afa158015610f33573d6000803e3d6000fd5b505050506040513d601f19601f82011682018060405250810190610f57919061185b565b60015460405163937821a160e01b81529192506001600160a01b03169063937821a190610f909089908990899089908990600401611a52565b600060405180830381600087803b158015610faa57600080fd5b505af1158015610fbe573d6000803e3d6000fd5b50506003546040516370a0823160e01b8152306004820152600093506001600160a01b0390911691506370a082319060240160206040518083038186803b15801561100857600080fd5b505afa15801561101c573d6000803e3d6000fd5b505050506040513d601f19601f82011682018060405250810190611040919061185b565b9050600061104e8383611ca6565b9050600061105d600583611c59565b90506110698183611ca6565b60008c8152600460205260409020600201556003546001600160a01b031663a9059cbb61109e6000546001600160a01b031690565b6040516001600160e01b031960e084901b1681526001600160a01b03909116600482015260248101849052604401602060405180830381600087803b1580156110e657600080fd5b505af11580156110fa573d6000803e3d6000fd5b505050506040513d601f19601f8201168201806040525081019061111e9190611820565b5060015460405163c9c4018360e01b81526001600160a01b039091169063c9c4018390611155908c908c908c908c906004016119fa565b600060405180830381600087803b15801561116f57600080fd5b505af1158015611183573d6000803e3d6000fd5b50505060009b8c525050600460208190526040909a20909901805460ff19169055505050505050505050565b62093a808110156112125760405162461bcd60e51b815260206004820152602760248201527f65787069726174696f6e54696d65206d757374206265206d6f7265207468656e6044820152662031207765656b60c81b6064820152608401610373565b6000828152600460205260409020805433610100026001600160a81b03199091161760011790556112438142611c41565b6000838152600460209081526040808320600190810194909455338084526005835281842080549586018155845291832090930185905591518492917febedb8b3c678666e7f36970bc8f57abf6d8fa2e828c0da91ea5b75bf68ed101a91a3600254604051632142170760e11b8152336004820152306024820152604481018490526001600160a01b03909116906342842e0e90606401600060405180830381600087803b1580156112f457600080fd5b505af1158015611308573d6000803e3d6000fd5b5050600680546001810182556000919091527ff652222313e28459528d920b65115c16c04f3efc82aaedc97be59f3f377c0d3f0180546001600160a01b0319163317905550505050565b6060600061135e6105e9565b905060008167ffffffffffffffff81111561137b5761137b611d30565b6040519080825280602002602001820160405280156113f957816020015b6113e66040518060e0016040528060001515815260200160006001600160a01b03168152602001600081526020016000815260200160008152602001600015158152602001600081525090565b8152602001906001900390816113995790505b5090506000805b60065481101561158d576000600560006006848154811061142357611423611d1a565b60009182526020808320909101546001600160a01b0316835282810193909352604091820190208054825181850281018501909352808352919290919083018282801561148f57602002820191906000526020600020905b81548152602001906001019080831161147b575b5050505050905060005b815181101561157857600460008383815181106114b8576114b8611d1a565b6020908102919091018101518252818101929092526040908101600020815160e081018352815460ff808216151583526101009091046001600160a01b03169482019490945260018201549281019290925260028101546060830152600381015460808301526004810154909216151560a082015260059091015460c0820152855186908690811061154c5761154c611d1a565b6020026020010181905250838061156290611cbd565b945050808061157090611cbd565b915050611499565b5050808061158590611cbd565b915050611400565b50909392505050565b600560205281600052604060002081815481106115b257600080fd5b90600052602060002001600091509150505481565b6000546001600160a01b031633146115f15760405162461bcd60e51b815260040161037390611c0c565b6001600160a01b0381166116565760405162461bcd60e51b815260206004820152602660248201527f4f776e61626c653a206e6577206f776e657220697320746865207a65726f206160448201526564647265737360d01b6064820152608401610373565b61165f8161168c565b50565b6006818154811061167257600080fd5b6000918252602090912001546001600160a01b0316905081565b600080546001600160a01b038381166001600160a01b0319831681178455604051919092169283917f8be0079c531659141344cd1fd0a4f28419497f9722a3daafe3b4186f6b6457e09190a35050565b80356001600160a01b03811681146116f357600080fd5b919050565b60006020828403121561170a57600080fd5b611713826116dc565b9392505050565b6000806000806080858703121561173057600080fd5b611739856116dc565b9350611747602086016116dc565b925060408501359150606085013567ffffffffffffffff8082111561176b57600080fd5b818701915087601f83011261177f57600080fd5b81358181111561179157611791611d30565b604051601f8201601f19908116603f011681019083821181831017156117b9576117b9611d30565b816040528281528a60208487010111156117d257600080fd5b82602086016020830137600060208483010152809550505050505092959194509250565b6000806040838503121561180957600080fd5b611812836116dc565b946020939093013593505050565b60006020828403121561183257600080fd5b8151801515811461171357600080fd5b60006020828403121561185457600080fd5b5035919050565b60006020828403121561186d57600080fd5b5051919050565b6000806040838503121561188757600080fd5b50508035926020909101359150565b600080604083850312156118a957600080fd5b82359150602083013560ff811681146118c157600080fd5b809150509250929050565b600081518084526020808501945080840160005b838110156119055781516001600160a01b0316875295820195908201906001016118e0565b509495945050505050565b600081518084526020808501945080840160005b838110156119055781516001600160e01b03191687529582019590820190600101611924565b600081518084526020808501945080840160005b838110156119055781516002811061197857611978611cee565b8752958201959082019060010161195e565b600081518084526020808501945080840160005b83811015611905578151600481106119b8576119b8611cee565b8752958201959082019060010161199e565b600081518084526020808501945080840160005b83811015611905578151875295820195908201906001016119de565b608081526000611a0d608083018761194a565b8281036020840152611a1f81876118cc565b90508281036040840152611a3381866119ca565b90508281036060840152611a4781856119ca565b979650505050505050565b60a081526000611a6560a083018861194a565b8281036020840152611a7781886118cc565b90508281036040840152611a8b81876119ca565b90508281036060840152611a9f81866119ca565b90508281036080840152611ab381856119ca565b98975050505050505050565b60e081526000611ad260e083018a61194a565b602083820381850152611ae5828b6118cc565b91508382036040850152611af9828a6119ca565b91508382036060850152611b0d82896119ca565b8481036080860152875180825282890193509082019060005b81811015611b4557845160ff1683529383019391830191600101611b26565b505084810360a0860152611b598188611910565b9250505082810360c0840152611b6f818561198a565b9a9950505050505050505050565b602080825282518282018190526000919060409081850190868401855b82811015611bff578151805115158552868101516001600160a01b0316878601528581015186860152606080820151908601526080808201519086015260a08082015115159086015260c0908101519085015260e09093019290850190600101611b9a565b5091979650505050505050565b6020808252818101527f4f776e61626c653a2063616c6c6572206973206e6f7420746865206f776e6572604082015260600190565b60008219821115611c5457611c54611cd8565b500190565b600082611c7657634e487b7160e01b600052601260045260246000fd5b500490565b600062ffffff80831681851681830481118215151615611c9d57611c9d611cd8565b02949350505050565b600082821015611cb857611cb8611cd8565b500390565b6000600019821415611cd157611cd1611cd8565b5060010190565b634e487b7160e01b600052601160045260246000fd5b634e487b7160e01b600052602160045260246000fd5b634e487b7160e01b600052603160045260246000fd5b634e487b7160e01b600052603260045260246000fd5b634e487b7160e01b600052604160045260246000fdfea26469706673582212201849022e2ee09eb3335f5b1a46f290955046f338f96c1f8299bce41d9cb2174864736f6c63430008070033",
  "linkReferences": {},
  "deployedLinkReferences": {}
}