{
  "_format": "hh-sol-artifact-1",
  "contractName": "Registry",
  "sourceName": "contracts/Registry.sol",
  "abi": [
    {
      "inputs": [
        {
          "internalType": "address",
          "name": "newResolver",
          "type": "address"
        },
        {
          "internalType": "address payable",
          "name": "newBeneficiary",
          "type": "address"
        },
        {
          "internalType": "address",
          "name": "newAdmin",
          "type": "address"
        }
      ],
      "stateMutability": "nonpayable",
      "type": "constructor"
    },
    {
      "anonymous": false,
      "inputs": [
        {
          "indexed": false,
          "internalType": "bool",
          "name": "is721",
          "type": "bool"
        },
        {
          "indexed": true,
          "internalType": "address",
          "name": "lenderAddress",
          "type": "address"
        },
        {
          "indexed": true,
          "internalType": "address",
          "name": "nftAddress",
          "type": "address"
        },
        {
          "indexed": true,
          "internalType": "uint256",
          "name": "tokenID",
          "type": "uint256"
        },
        {
          "indexed": false,
          "internalType": "uint256",
          "name": "lendingID",
          "type": "uint256"
        },
        {
          "indexed": false,
          "internalType": "uint8",
          "name": "maxRentDuration",
          "type": "uint8"
        },
        {
          "indexed": false,
          "internalType": "bytes4",
          "name": "dailyRentPrice",
          "type": "bytes4"
        },
        {
          "indexed": false,
          "internalType": "uint16",
          "name": "lendAmount",
          "type": "uint16"
        },
        {
          "indexed": false,
          "internalType": "enum IResolver.PaymentToken",
          "name": "paymentToken",
          "type": "uint8"
        }
      ],
      "name": "Lend",
      "type": "event"
    },
    {
      "anonymous": false,
      "inputs": [
        {
          "indexed": true,
          "internalType": "address",
          "name": "renterAddress",
          "type": "address"
        },
        {
          "indexed": true,
          "internalType": "uint256",
          "name": "lendingID",
          "type": "uint256"
        },
        {
          "indexed": true,
          "internalType": "uint256",
          "name": "rentingID",
          "type": "uint256"
        },
        {
          "indexed": false,
          "internalType": "uint16",
          "name": "rentAmount",
          "type": "uint16"
        },
        {
          "indexed": false,
          "internalType": "uint8",
          "name": "rentDuration",
          "type": "uint8"
        },
        {
          "indexed": false,
          "internalType": "uint32",
          "name": "rentedAt",
          "type": "uint32"
        }
      ],
      "name": "Rent",
      "type": "event"
    },
    {
      "anonymous": false,
      "inputs": [
        {
          "indexed": true,
          "internalType": "uint256",
          "name": "rentingID",
          "type": "uint256"
        },
        {
          "indexed": false,
          "internalType": "uint32",
          "name": "collectedAt",
          "type": "uint32"
        }
      ],
      "name": "RentClaimed",
      "type": "event"
    },
    {
      "anonymous": false,
      "inputs": [
        {
          "indexed": true,
          "internalType": "uint256",
          "name": "lendingID",
          "type": "uint256"
        },
        {
          "indexed": false,
          "internalType": "uint32",
          "name": "stoppedAt",
          "type": "uint32"
        }
      ],
      "name": "StopLend",
      "type": "event"
    },
    {
      "anonymous": false,
      "inputs": [
        {
          "indexed": true,
          "internalType": "uint256",
          "name": "rentingID",
          "type": "uint256"
        },
        {
          "indexed": false,
          "internalType": "uint32",
          "name": "stoppedAt",
          "type": "uint32"
        }
      ],
      "name": "StopRent",
      "type": "event"
    },
    {
      "inputs": [
        {
          "internalType": "enum IRegistry.NFTStandard[]",
          "name": "nftStandard",
          "type": "uint8[]"
        },
        {
          "internalType": "address[]",
          "name": "nftAddress",
          "type": "address[]"
        },
        {
          "internalType": "uint256[]",
          "name": "tokenID",
          "type": "uint256[]"
        },
        {
          "internalType": "uint256[]",
          "name": "_lendingID",
          "type": "uint256[]"
        },
        {
          "internalType": "uint256[]",
          "name": "_rentingID",
          "type": "uint256[]"
        }
      ],
      "name": "claimRent",
      "outputs": [],
      "stateMutability": "nonpayable",
      "type": "function"
    },
    {
      "inputs": [
        {
          "internalType": "address",
          "name": "nftAddress",
          "type": "address"
        },
        {
          "internalType": "uint256",
          "name": "tokenID",
          "type": "uint256"
        },
        {
          "internalType": "uint256",
          "name": "_lendingID",
          "type": "uint256"
        }
      ],
      "name": "getLending",
      "outputs": [
        {
          "internalType": "uint8",
          "name": "",
          "type": "uint8"
        },
        {
          "internalType": "address",
          "name": "",
          "type": "address"
        },
        {
          "internalType": "uint8",
          "name": "",
          "type": "uint8"
        },
        {
          "internalType": "bytes4",
          "name": "",
          "type": "bytes4"
        },
        {
          "internalType": "uint16",
          "name": "",
          "type": "uint16"
        },
        {
          "internalType": "uint16",
          "name": "",
          "type": "uint16"
        },
        {
          "internalType": "uint8",
          "name": "",
          "type": "uint8"
        }
      ],
      "stateMutability": "view",
      "type": "function"
    },
    {
      "inputs": [
        {
          "internalType": "address",
          "name": "nftAddress",
          "type": "address"
        },
        {
          "internalType": "uint256",
          "name": "tokenID",
          "type": "uint256"
        },
        {
          "internalType": "uint256",
          "name": "_rentingID",
          "type": "uint256"
        }
      ],
      "name": "getRenting",
      "outputs": [
        {
          "internalType": "address",
          "name": "",
          "type": "address"
        },
        {
          "internalType": "uint16",
          "name": "",
          "type": "uint16"
        },
        {
          "internalType": "uint8",
          "name": "",
          "type": "uint8"
        },
        {
          "internalType": "uint32",
          "name": "",
          "type": "uint32"
        }
      ],
      "stateMutability": "view",
      "type": "function"
    },
    {
      "inputs": [
        {
          "internalType": "enum IRegistry.NFTStandard[]",
          "name": "nftStandard",
          "type": "uint8[]"
        },
        {
          "internalType": "address[]",
          "name": "nftAddress",
          "type": "address[]"
        },
        {
          "internalType": "uint256[]",
          "name": "tokenID",
          "type": "uint256[]"
        },
        {
          "internalType": "uint256[]",
          "name": "lendAmount",
          "type": "uint256[]"
        },
        {
          "internalType": "uint8[]",
          "name": "maxRentDuration",
          "type": "uint8[]"
        },
        {
          "internalType": "bytes4[]",
          "name": "dailyRentPrice",
          "type": "bytes4[]"
        },
        {
          "internalType": "enum IResolver.PaymentToken[]",
          "name": "paymentToken",
          "type": "uint8[]"
        }
      ],
      "name": "lend",
      "outputs": [],
      "stateMutability": "nonpayable",
      "type": "function"
    },
    {
      "inputs": [],
      "name": "lendingID",
      "outputs": [
        {
          "internalType": "uint256",
          "name": "",
          "type": "uint256"
        }
      ],
      "stateMutability": "view",
      "type": "function"
    },
    {
      "inputs": [
        {
          "internalType": "bytes32",
          "name": "",
          "type": "bytes32"
        }
      ],
      "name": "lendings",
      "outputs": [
        {
          "internalType": "enum IRegistry.NFTStandard",
          "name": "nftStandard",
          "type": "uint8"
        },
        {
          "internalType": "address payable",
          "name": "lenderAddress",
          "type": "address"
        },
        {
          "internalType": "uint8",
          "name": "maxRentDuration",
          "type": "uint8"
        },
        {
          "internalType": "bytes4",
          "name": "dailyRentPrice",
          "type": "bytes4"
        },
        {
          "internalType": "uint16",
          "name": "lendAmount",
          "type": "uint16"
        },
        {
          "internalType": "uint16",
          "name": "availableAmount",
          "type": "uint16"
        },
        {
          "internalType": "enum IResolver.PaymentToken",
          "name": "paymentToken",
          "type": "uint8"
        }
      ],
      "stateMutability": "view",
      "type": "function"
    },
    {
      "inputs": [
        {
          "internalType": "address",
          "name": "",
          "type": "address"
        },
        {
          "internalType": "address",
          "name": "",
          "type": "address"
        },
        {
          "internalType": "uint256[]",
          "name": "",
          "type": "uint256[]"
        },
        {
          "internalType": "uint256[]",
          "name": "",
          "type": "uint256[]"
        },
        {
          "internalType": "bytes",
          "name": "",
          "type": "bytes"
        }
      ],
      "name": "onERC1155BatchReceived",
      "outputs": [
        {
          "internalType": "bytes4",
          "name": "",
          "type": "bytes4"
        }
      ],
      "stateMutability": "nonpayable",
      "type": "function"
    },
    {
      "inputs": [
        {
          "internalType": "address",
          "name": "",
          "type": "address"
        },
        {
          "internalType": "address",
          "name": "",
          "type": "address"
        },
        {
          "internalType": "uint256",
          "name": "",
          "type": "uint256"
        },
        {
          "internalType": "uint256",
          "name": "",
          "type": "uint256"
        },
        {
          "internalType": "bytes",
          "name": "",
          "type": "bytes"
        }
      ],
      "name": "onERC1155Received",
      "outputs": [
        {
          "internalType": "bytes4",
          "name": "",
          "type": "bytes4"
        }
      ],
      "stateMutability": "nonpayable",
      "type": "function"
    },
    {
      "inputs": [
        {
          "internalType": "address",
          "name": "",
          "type": "address"
        },
        {
          "internalType": "address",
          "name": "",
          "type": "address"
        },
        {
          "internalType": "uint256",
          "name": "",
          "type": "uint256"
        },
        {
          "internalType": "bytes",
          "name": "",
          "type": "bytes"
        }
      ],
      "name": "onERC721Received",
      "outputs": [
        {
          "internalType": "bytes4",
          "name": "",
          "type": "bytes4"
        }
      ],
      "stateMutability": "nonpayable",
      "type": "function"
    },
    {
      "inputs": [],
      "name": "paused",
      "outputs": [
        {
          "internalType": "bool",
          "name": "",
          "type": "bool"
        }
      ],
      "stateMutability": "view",
      "type": "function"
    },
    {
      "inputs": [
        {
          "internalType": "enum IRegistry.NFTStandard[]",
          "name": "nftStandard",
          "type": "uint8[]"
        },
        {
          "internalType": "address[]",
          "name": "nftAddress",
          "type": "address[]"
        },
        {
          "internalType": "uint256[]",
          "name": "tokenID",
          "type": "uint256[]"
        },
        {
          "internalType": "uint256[]",
          "name": "_lendingID",
          "type": "uint256[]"
        },
        {
          "internalType": "uint8[]",
          "name": "rentDuration",
          "type": "uint8[]"
        },
        {
          "internalType": "uint256[]",
          "name": "rentAmount",
          "type": "uint256[]"
        }
      ],
      "name": "rent",
      "outputs": [],
      "stateMutability": "payable",
      "type": "function"
    },
    {
      "inputs": [],
      "name": "rentFee",
      "outputs": [
        {
          "internalType": "uint256",
          "name": "",
          "type": "uint256"
        }
      ],
      "stateMutability": "view",
      "type": "function"
    },
    {
      "inputs": [
        {
          "internalType": "address payable",
          "name": "newBeneficiary",
          "type": "address"
        }
      ],
      "name": "setBeneficiary",
      "outputs": [],
      "stateMutability": "nonpayable",
      "type": "function"
    },
    {
      "inputs": [
        {
          "internalType": "bool",
          "name": "newPaused",
          "type": "bool"
        }
      ],
      "name": "setPaused",
      "outputs": [],
      "stateMutability": "nonpayable",
      "type": "function"
    },
    {
      "inputs": [
        {
          "internalType": "uint256",
          "name": "newRentFee",
          "type": "uint256"
        }
      ],
      "name": "setRentFee",
      "outputs": [],
      "stateMutability": "nonpayable",
      "type": "function"
    },
    {
      "inputs": [
        {
          "internalType": "enum IRegistry.NFTStandard[]",
          "name": "nftStandard",
          "type": "uint8[]"
        },
        {
          "internalType": "address[]",
          "name": "nftAddress",
          "type": "address[]"
        },
        {
          "internalType": "uint256[]",
          "name": "tokenID",
          "type": "uint256[]"
        },
        {
          "internalType": "uint256[]",
          "name": "_lendingID",
          "type": "uint256[]"
        }
      ],
      "name": "stopLend",
      "outputs": [],
      "stateMutability": "nonpayable",
      "type": "function"
    },
    {
      "inputs": [
        {
          "internalType": "enum IRegistry.NFTStandard[]",
          "name": "nftStandard",
          "type": "uint8[]"
        },
        {
          "internalType": "address[]",
          "name": "nftAddress",
          "type": "address[]"
        },
        {
          "internalType": "uint256[]",
          "name": "tokenID",
          "type": "uint256[]"
        },
        {
          "internalType": "uint256[]",
          "name": "_lendingID",
          "type": "uint256[]"
        },
        {
          "internalType": "uint256[]",
          "name": "_rentingID",
          "type": "uint256[]"
        }
      ],
      "name": "stopRent",
      "outputs": [],
      "stateMutability": "nonpayable",
      "type": "function"
    },
    {
      "inputs": [
        {
          "internalType": "bytes4",
          "name": "interfaceId",
          "type": "bytes4"
        }
      ],
      "name": "supportsInterface",
      "outputs": [
        {
          "internalType": "bool",
          "name": "",
          "type": "bool"
        }
      ],
      "stateMutability": "view",
      "type": "function"
    }
  ],
  "bytecode": "0x6080604052600160038190556004556005805460ff1916905560006006553480156200002a57600080fd5b5060405162004ddc38038062004ddc8339810160408190526200004d916200010f565b6200005883620000b1565b6200006382620000b1565b6200006e81620000b1565b600080546001600160a01b039485166001600160a01b03199182161790915560028054938516938216939093179092556001805491909316911617905562000179565b6001600160a01b0381166200010c5760405162461bcd60e51b815260206004820152601360248201527f52654e46543a3a7a65726f206164647265737300000000000000000000000000604482015260640160405180910390fd5b50565b6000806000606084860312156200012557600080fd5b8351620001328162000163565b6020850151909350620001458162000163565b6040850151909250620001588162000163565b809150509250925092565b6001600160a01b03811681146200010c57600080fd5b614c5380620001896000396000f3fe6080604052600436106101095760003560e01c806376774ea311610095578063bf2b23ea11610064578063bf2b23ea146103b6578063c9c40183146103cc578063cbe55e54146103ec578063f23a6e61146103ff578063fe46b7cd1461042b57600080fd5b806376774ea314610326578063937821a114610346578063b354712814610366578063bc197c811461038a57600080fd5b80631c31f710116100dc5780631c31f710146101c95780631cbb410f146101e9578063296c21b7146102095780633e77b4ca146102815780635c975abb1461030c57600080fd5b806301ffc9a71461010e57806314b5685c14610143578063150b7a021461016557806316c38b3c146101a9575b600080fd5b34801561011a57600080fd5b5061012e61012936600461465a565b610486565b60405190151581526020015b60405180910390f35b34801561014f57600080fd5b5061016361015e366004614335565b6104bd565b005b34801561017157600080fd5b5061019061018036600461418d565b630a85bd0160e11b949350505050565b6040516001600160e01b0319909116815260200161013a565b3480156101b557600080fd5b506101636101c4366004614607565b610508565b3480156101d557600080fd5b506101636101e43660046140c3565b610545565b3480156101f557600080fd5b506101636102043660046143f9565b610591565b34801561021557600080fd5b50610229610224366004614260565b6105d2565b6040805160ff98891681526001600160a01b039097166020880152948716948601949094526001600160e01b0319909216606085015261ffff90811660808501521660a08301529190911660c082015260e00161013a565b34801561028d57600080fd5b506102f961029c366004614641565b60076020526000908152604090205460ff808216916001600160a01b0361010082041691600160a81b8204811691600160b01b810460e01b9161ffff600160d01b8304811692600160e01b810490911691600160f01b9091041687565b60405161013a97969594939291906147c2565b34801561031857600080fd5b5060055461012e9060ff1681565b34801561033257600080fd5b50610163610341366004614641565b6106a8565b34801561035257600080fd5b50610163610361366004614335565b610728565b34801561037257600080fd5b5061037c60035481565b60405190815260200161013a565b34801561039657600080fd5b506101906103a53660046140e0565b63bc197c8160e01b95945050505050565b3480156103c257600080fd5b5061037c60065481565b3480156103d857600080fd5b506101636103e7366004614295565b61075e565b6101636103fa366004614513565b6107c5565b34801561040b57600080fd5b5061019061041a3660046141f8565b63f23a6e6160e01b95945050505050565b34801561043757600080fd5b5061044b610446366004614260565b610804565b604080516001600160a01b03909516855261ffff909316602085015260ff9091169183019190915263ffffffff16606082015260800161013a565b60006001600160e01b03198216630271189760e51b14806104b757506301ffc9a760e01b6001600160e01b03198316145b92915050565b60055460ff16156104e95760405162461bcd60e51b81526004016104e090614904565b60405180910390fd5b6105016108826104fc8787878787610e24565b610faa565b5050505050565b6001546001600160a01b031633146105325760405162461bcd60e51b81526004016104e09061492b565b6005805460ff1916911515919091179055565b6001546001600160a01b0316331461056f5760405162461bcd60e51b81526004016104e09061492b565b600280546001600160a01b0319166001600160a01b0392909216919091179055565b60055460ff16156105b45760405162461bcd60e51b81526004016104e090614904565b6105c96110df6104fc89898989898989611682565b50505050505050565b6000806000806000806000808a8a8a6040516020016105f3939291906146e1565b60408051601f19818403018152918152815160209283012060008181526007909352912080549192509060ff16600181111561063157610631614ba9565b81546001600160a01b036101008204169060ff600160a81b8204811691600160b01b810460e01b9161ffff600160d01b8304811692600160e01b810490911691600160f01b90910416600381111561068b5761068b614ba9565b985098509850985098509850985050509397509397509397909450565b6001546001600160a01b031633146106d25760405162461bcd60e51b81526004016104e09061492b565b61271081106107235760405162461bcd60e51b815260206004820152601960248201527f52654e46543a3a6665652065786365656473203130307063740000000000000060448201526064016104e0565b600655565b60055460ff161561074b5760405162461bcd60e51b81526004016104e090614904565b6105016117b26104fc8787878787610e24565b60055460ff16156107815760405162461bcd60e51b81526004016104e090614904565b6107bf611bb96104fc8686868660006040519080825280602002602001820160405280156107b9578160200160208202803683370190505b50610e24565b50505050565b60055460ff16156107e85760405162461bcd60e51b81526004016104e090614904565b6107fc611f726104fc8888888888886126f3565b505050505050565b6000806000806000878787604051602001610821939291906146e1565b60408051808303601f190181529181528151602092830120600090815260089092529020546001600160a01b03811699600160c81b820461ffff169950600160a01b820460ff169850600160a81b90910463ffffffff169650945050505050565b80515b8160200151811015610e2057600082606001518360000151815181106108ad576108ad614bbf565b6020026020010151836080015183815181106108cb576108cb614bbf565b602002602001015184610100015184815181106108ea576108ea614bbf565b6020026020010151604051602001610904939291906146e1565b6040516020818303038152906040528051906020012090506000836060015184600001518151811061093857610938614bbf565b60200260200101518460800151848151811061095657610956614bbf565b6020026020010151856101200151858151811061097557610975614bbf565b602002602001015160405160200161098f939291906146e1565b60408051601f198184030181528282528051602091820120600086815260078352838120828252600890935283902060e0850190935281549094509092610a90918490829060ff1660018111156109e8576109e8614ba9565b60018111156109f9576109f9614ba9565b815281546001600160a01b03610100820416602083015260ff600160a81b8204811660408401526001600160e01b0319600160b01b830460e01b16606084015261ffff600160d01b830481166080850152600160e01b83041660a084015260c090920191600160f01b909104166003811115610a7757610a77614ba9565b6003811115610a8857610a88614ba9565b905250612815565b6040805160808101825282546001600160a01b0381168252600160a01b810460ff166020830152600160a81b810463ffffffff1692820192909252600160c81b90910461ffff166060820152610ae590612898565b6040805160808101825282546001600160a01b0381168252600160a01b810460ff166020830152600160a81b810463ffffffff1692820192909252600160c81b90910461ffff166060820152610b3c90334261291e565b815460ff166001811115610b5257610b52614ba9565b86604001518681518110610b6857610b68614bbf565b60200260200101516001811115610b8157610b81614ba9565b14610b9e5760405162461bcd60e51b81526004016104e09061485f565b81548154600160d01b90910461ffff908116600160c81b909204161115610bff5760405162461bcd60e51b81526020600482015260156024820152742932a7232a1d1d31b934ba34b1b0b61032b93937b960591b60448201526064016104e0565b8054600090610c1b90600160a81b900463ffffffff1642614b35565b6040805160e081019091528454919250610d3c918590829060ff166001811115610c4757610c47614ba9565b6001811115610c5857610c58614ba9565b815281546001600160a01b03610100820416602083015260ff600160a81b8204811660408401526001600160e01b0319600160b01b830460e01b16606084015261ffff600160d01b830481166080850152600160e01b83041660a084015260c090920191600160f01b909104166003811115610cd657610cd6614ba9565b6003811115610ce757610ce7614ba9565b9052506040805160808101825285546001600160a01b0381168252600160a01b810460ff166020830152600160a81b810463ffffffff1692820192909252600160c81b90910461ffff166060820152836129d3565b81546000868152600760205260409020805461ffff600160c81b909304831692601c91610d72918591600160e01b9004166149a8565b92506101000a81548161ffff021916908361ffff1602179055508661012001518681518110610da357610da3614bbf565b60200260200101517f58855dd8908b14c6d7922d964418f37efd968bc6b9b857560870b14a898f916d42604051610de6919063ffffffff91909116815260200190565b60405180910390a2505050600090815260086020526040902080546001600160d81b03191690555080610e1881614b78565b915050610885565b5050565b610e2c613d1f565b604051806101a00160405280600081526020016001815260200187815260200186815260200185815260200160006001600160401b03811115610e7157610e71614bd5565b604051908082528060200260200182016040528015610e9a578160200160208202803683370190505b5081526020016000604051908082528060200260200182016040528015610ecb578160200160208202803683370190505b5081526020016000604051908082528060200260200182016040528015610efc578160200160208202803683370190505b50815260208101859052604081018490526060016000604051908082528060200260200182016040528015610f3b578160200160208202803683370190505b5081526020016000604051908082528060200260200182016040528015610f6c578160200160208202803683370190505b5081526020016000604051908082528060200260200182016040528015610f9d578160200160208202803683370190505b5090529695505050505050565b600081606001515111610ff05760405162461bcd60e51b815260206004820152600e60248201526d52654e46543a3a6e6f206e66747360901b60448201526064016104e0565b8060600151518160200151146110d257806060015181602001518151811061101a5761101a614bbf565b60200260200101516001600160a01b0316816060015182600001518151811061104557611045614bbf565b60200260200101516001600160a01b031614801561109557506001816040015182602001518151811061107a5761107a614bbf565b6020026020010151600181111561109357611093614ba9565b145b156110b257602081018051906110aa82614b78565b905250610ff0565b6110bf818363ffffffff16565b602081018051808352906110aa82614b78565b610e20818363ffffffff16565b80515b8160200151811015611641576110f88282612c78565b6000826060015183600001518151811061111457611114614bbf565b60200260200101518360800151838151811061113257611132614bbf565b602002602001015160035460405160200161114f939291906146e1565b60408051601f198184030181528282528051602091820120600081815260079092529082902060e0840190925281549093509091611247918390829060ff16600181111561119f5761119f614ba9565b60018111156111b0576111b0614ba9565b815281546001600160a01b03610100820416602083015260ff600160a81b8204811660408401526001600160e01b0319600160b01b830460e01b16606084015261ffff600160d01b830481166080850152600160e01b83041660a084015260c090920191600160f01b90910416600381111561122e5761122e614ba9565b600381111561123f5761123f614ba9565b905250612e36565b61127f846101800151848151811061126157611261614bbf565b6020026020010151600381111561127a5761127a614ba9565b612eef565b6000808560400151858151811061129857611298614bbf565b602002602001015160018111156112b1576112b1614ba9565b1490506040518060e00160405280866040015186815181106112d5576112d5614bbf565b602002602001015160018111156112ee576112ee614ba9565b8152602001336001600160a01b031681526020018660c00151868151811061131857611318614bbf565b602002602001015160ff1681526020018660e00151868151811061133e5761133e614bbf565b60200260200101516001600160e01b03191681526020018261137d578660a00151868151811061137057611370614bbf565b6020026020010151611380565b60015b61ffff168152602001826113b1578660a0015186815181106113a4576113a4614bbf565b60200260200101516113b4565b60015b61ffff16815260200186610180015186815181106113d4576113d4614bbf565b602002602001015160038111156113ed576113ed614ba9565b9052600084815260076020526040902081518154829060ff19166001838181111561141a5761141a614ba9565b02179055506020820151815460408401516060850151608086015160a0870151610100600160b01b03199094166101006001600160a01b039096169590950260ff60a81b191694909417600160a81b60ff909316929092029190911765ffffffffffff60b01b1916600160b01b60e09290921c9190910261ffff60d01b191617600160d01b61ffff938416021761ffff60e01b198116600160e01b9390921692909202908117835560c084015191839162ffffff60e01b1990911660ff60f01b1990911617600160f01b8360038111156114f6576114f6614ba9565b02179055509050508460800151848151811061151457611514614bbf565b6020026020010151856060015186600001518151811061153657611536614bbf565b60200260200101516001600160a01b0316336001600160a01b03167f46e173c7568bb4f093e16923381dcba2a6b48f9cc9e688867965731218500ad3846003548a60c001518a8151811061158c5761158c614bbf565b60200260200101518b60e001518b815181106115aa576115aa614bbf565b6020026020010151886115da578c60a001518c815181106115cd576115cd614bbf565b60200260200101516115dd565b60015b8d61018001518d815181106115f4576115f4614bbf565b602002602001015160405161160e96959493929190614782565b60405180910390a46003805490600061162683614b78565b9190505550505050808061163990614b78565b9150506110e2565b5061167f8133306116618560800151866000015187602001516000612f42565b61167a8660a00151876000015188602001516000612f42565b613001565b50565b61168a613d1f565b604051806101a00160405280600081526020016001815260200189815260200188815260200187815260200186815260200185815260200184815260200160006001600160401b038111156116e1576116e1614bd5565b60405190808252806020026020018201604052801561170a578160200160208202803683370190505b508152602001600060405190808252806020026020018201604052801561173b578160200160208202803683370190505b508152602001600060405190808252806020026020018201604052801561176c578160200160208202803683370190505b508152602001600060405190808252806020026020018201604052801561179d578160200160208202803683370190505b50815260200192909252509695505050505050565b80515b8160200151811015610e2057600082606001518360000151815181106117dd576117dd614bbf565b6020026020010151836080015183815181106117fb576117fb614bbf565b6020026020010151846101000151848151811061181a5761181a614bbf565b6020026020010151604051602001611834939291906146e1565b6040516020818303038152906040528051906020012090506000836060015184600001518151811061186857611868614bbf565b60200260200101518460800151848151811061188657611886614bbf565b602002602001015185610120015185815181106118a5576118a5614bbf565b60200260200101516040516020016118bf939291906146e1565b60408051601f198184030181528282528051602091820120600086815260078352838120828252600890935283902060e0850190935281549094509092611918918490829060ff1660018111156109e8576109e8614ba9565b6040805160808101825282546001600160a01b0381168252600160a01b810460ff166020830152600160a81b810463ffffffff1692820192909252600160c81b90910461ffff16606082015261196d90612898565b6040805160808101825282546001600160a01b0381168252600160a01b810460ff166020830152600160a81b810463ffffffff1692820192909252600160c81b90910461ffff1660608201526119c39042613182565b6040805160e081019091528254611ae191908490829060ff1660018111156119ed576119ed614ba9565b60018111156119fe576119fe614ba9565b815281546001600160a01b03610100820416602083015260ff600160a81b8204811660408401526001600160e01b0319600160b01b830460e01b16606084015261ffff600160d01b830481166080850152600160e01b83041660a084015260c090920191600160f01b909104166003811115611a7c57611a7c614ba9565b6003811115611a8d57611a8d614ba9565b9052506040805160808101825284546001600160a01b0381168252600160a01b810460ff166020830152600160a81b810463ffffffff1692820192909252600160c81b90910461ffff1660608201526131d8565b8054825461ffff600160c81b9092048216918491601c91611b0c918591600160e01b909104166149a8565b92506101000a81548161ffff021916908361ffff1602179055508561012001518581518110611b3d57611b3d614bbf565b60200260200101517f4630b53a4335803b2a4f9c1ce896f4cadbf909907810e496eda17614483d7b9442604051611b80919063ffffffff91909116815260200190565b60405180910390a25050600090815260086020526040902080546001600160d81b03191690555080611bb181614b78565b9150506117b5565b80516020820151600091611bcc91614b35565b6001600160401b03811115611be357611be3614bd5565b604051908082528060200260200182016040528015611c0c578160200160208202803683370190505b5082519091505b8260200151811015611f3f5760008360600151846000015181518110611c3b57611c3b614bbf565b602002602001015184608001518381518110611c5957611c59614bbf565b60200260200101518561010001518481518110611c7857611c78614bbf565b6020026020010151604051602001611c92939291906146e1565b60408051601f198184030181528282528051602091820120600081815260079092529082902060e0840190925281549093509091611ce2918390829060ff1660018111156109e8576109e8614ba9565b6040805160e081019091528154611db591908390829060ff166001811115611d0c57611d0c614ba9565b6001811115611d1d57611d1d614ba9565b815281546001600160a01b03610100820416602083015260ff600160a81b8204811660408401526001600160e01b0319600160b01b830460e01b16606084015261ffff600160d01b830481166080850152600160e01b83041660a084015260c090920191600160f01b909104166003811115611d9b57611d9b614ba9565b6003811115611dac57611dac614ba9565b9052503361338a565b805460ff166001811115611dcb57611dcb614ba9565b85604001518481518110611de157611de1614bbf565b60200260200101516001811115611dfa57611dfa614ba9565b14611e175760405162461bcd60e51b81526004016104e09061485f565b8054600160d01b810461ffff908116600160e01b9092041614611e755760405162461bcd60e51b815260206004820152601660248201527514995391950e8e9858dd1a5d995b1e481c995b9d195960521b60448201526064016104e0565b80548551600160d01b90910461ffff16908590611e929086614b35565b81518110611ea257611ea2614bbf565b6020026020010181815250508461010001518381518110611ec557611ec5614bbf565b60200260200101517fd0234bc8dd7e933f60cbc1e90fc139a8a9683af1cb92743607dafb9dfb70059b42604051611f08919063ffffffff91909116815260200190565b60405180910390a250600090815260076020526040902080546001600160f81b031916905580611f3781614b78565b915050611c13565b50610e20823033611f5f8660800151876000015188602001516000612f42565b8651602088015161167a91889181612f42565b80515b8160200151811015610e205760008260600151836000015181518110611f9d57611f9d614bbf565b602002602001015183608001518381518110611fbb57611fbb614bbf565b60200260200101518461010001518481518110611fda57611fda614bbf565b6020026020010151604051602001611ff4939291906146e1565b6040516020818303038152906040528051906020012090506000836060015184600001518151811061202857612028614bbf565b60200260200101518460800151848151811061204657612046614bbf565b6020026020010151600454604051602001612063939291906146e1565b60408051601f198184030181528282528051602091820120600086815260078352838120828252600890935283902060e08501909352815490945090926120bc918490829060ff1660018111156109e8576109e8614ba9565b6040805160808101825282546001600160a01b0381168252600160a01b810460ff166020830152600160a81b810463ffffffff1692820192909252600160c81b90910461ffff166060820152612111906133e3565b6040805160e0810190915282546121e691908490829060ff16600181111561213b5761213b614ba9565b600181111561214c5761214c614ba9565b815281546001600160a01b03610100820416602083015260ff600160a81b8204811660408401526001600160e01b0319600160b01b830460e01b16606084015261ffff600160d01b830481166080850152600160e01b83041660a084015260c090920191600160f01b9091041660038111156121ca576121ca614ba9565b60038111156121db576121db614ba9565b905250878733613496565b815460ff1660018111156121fc576121fc614ba9565b8660400151868151811061221257612212614bbf565b6020026020010151600181111561222b5761222b614ba9565b146122485760405162461bcd60e51b81526004016104e09061485f565b81546101608701518051600160e01b90920461ffff16918790811061226f5761226f614bbf565b602002602001015111156122c55760405162461bcd60e51b815260206004820152601a60248201527f52654e46543a3a696e76616c69642072656e7420616d6f756e7400000000000060448201526064016104e0565b8154600090600160f01b900460ff1660038111156122e5576122e5614ba9565b6000805460405163c6ee427f60e01b815260ff8416600482015292935090916001600160a01b039091169063c6ee427f9060240160206040518083038186803b15801561233157600080fd5b505afa158015612345573d6000803e3d6000fd5b505050506040513d601f19601f8201168201806040525081019061236991906140a6565b90506000816001600160a01b031663313ce5676040518163ffffffff1660e01b815260040160206040518083038186803b1580156123a657600080fd5b505afa1580156123ba573d6000803e3d6000fd5b505050506040513d601f19601f820116820180604052508101906123de9190614675565b60ff16905060006123f082600a614a4b565b865490915060009061240c90600160b01b900460e01b83613701565b8b61014001518b8151811061242357612423614bbf565b602002602001015160ff168c61016001518c8151811061244557612445614bbf565b60200260200101516124579190614af3565b6124619190614af3565b9050600081116124835760405162461bcd60e51b81526004016104e0906148cd565b6124986001600160a01b038516333084613790565b50506040518060800160405280336001600160a01b031681526020018a61014001518a815181106124cb576124cb614bbf565b602002602001015160ff1681526020014263ffffffff1681526020018a61016001518a815181106124fe576124fe614bbf565b60209081029190910181015161ffff908116909252600089815260088252604090819020845181549386015192860151606090960151909416600160c81b0261ffff60c81b1963ffffffff909616600160a81b029590951665ffffffffffff60a81b1960ff909316600160a01b026001600160a81b03199094166001600160a01b03909516949094179290921716919091179190911790556101608901518051899081106125ae576125ae614bbf565b6020908102919091018101516000898152600790925260409091208054601c906125e4908490600160e01b900461ffff16614b12565b92506101000a81548161ffff021916908361ffff160217905550600454896101000151898151811061261857612618614bbf565b6020026020010151336001600160a01b03167f61e1a1e6f89eaba4ba0119b0023bd32b1bb0412ab96ccd8d0588a3e98a0976318c61016001518c8151811061266257612662614bbf565b60200260200101518d61014001518d8151811061268157612681614bbf565b6020908102919091018101518a546040805161ffff909516855260ff90921692840192909252600160a81b90910463ffffffff169082015260600160405180910390a4600480549060006126d483614b78565b91905055505050505050505080806126eb90614b78565b915050611f75565b6126fb613d1f565b604051806101a00160405280600081526020016001815260200188815260200187815260200186815260200160006001600160401b0381111561274057612740614bd5565b604051908082528060200260200182016040528015612769578160200160208202803683370190505b508152602001600060405190808252806020026020018201604052801561279a578160200160208202803683370190505b50815260200160006040519080825280602002602001820160405280156127cb578160200160208202803683370190505b5081526020808201969096526040805160008082528189018352828401919091526060830196909652608082019490945283519485529484019092525060a0909201529392505050565b61282281602001516137fb565b604081015160ff1661286d5760405162461bcd60e51b815260206004820152601460248201527352654e46543a3a6475726174696f6e207a65726f60601b60448201526064016104e0565b60608101516001600160e01b03191661167f5760405162461bcd60e51b81526004016104e0906148cd565b80516128a3906137fb565b602081015160ff166128c75760405162461bcd60e51b81526004016104e090614896565b604081015163ffffffff1661167f5760405162461bcd60e51b815260206004820152601860248201527f52654e46543a3a72656e746564206174206973207a65726f000000000000000060448201526064016104e0565b816001600160a01b031683600001516001600160a01b0316146129775760405162461bcd60e51b81526020600482015260116024820152702932a7232a1d1d3737ba103932b73a32b960791b60448201526064016104e0565b6129818382613847565b156129ce5760405162461bcd60e51b815260206004820152601760248201527f52654e46543a3a706173742072657475726e206461746500000000000000000060448201526064016104e0565b505050565b60008360c0015160038111156129eb576129eb614ba9565b6000805460405163c6ee427f60e01b815260ff8416600482015292935090916001600160a01b039091169063c6ee427f9060240160206040518083038186803b158015612a3757600080fd5b505afa158015612a4b573d6000803e3d6000fd5b505050506040513d601f19601f82011682018060405250810190612a6f91906140a6565b90506000816001600160a01b031663313ce5676040518163ffffffff1660e01b815260040160206040518083038186803b158015612aac57600080fd5b505afa158015612ac0573d6000803e3d6000fd5b505050506040513d601f19601f82011682018060405250810190612ae49190614675565b60ff1690506000612af682600a614a4b565b90506000612b08886060015183613701565b876060015161ffff16612b1b9190614af3565b90506000876020015160ff1682612b329190614af3565b9050600062015180612b44848a614af3565b612b4e91906149e6565b905060008211612bac5760405162461bcd60e51b815260206004820152602360248201527f52654e46543a3a746f74616c2072656e746572207061796d656e74206973207a60448201526265726f60e81b60648201526084016104e0565b60008111612bfc5760405162461bcd60e51b815260206004820152601d60248201527f52654e46543a3a6c656e646572207061796d656e74206973207a65726f00000060448201526064016104e0565b6000612c088284614b35565b9050600654600014612c34576000612c24838d60c001516138d5565b9050612c308184614b35565b9250505b60208b0151612c4e906001600160a01b03891690846139b2565b8015612c6b578951612c6b906001600160a01b03891690836139b2565b5050505050505050505050565b60008260a001518281518110612c9057612c90614bbf565b602002602001015111612ce55760405162461bcd60e51b815260206004820152601a60248201527f52654e46543a3a6c656e6420616d6f756e74206973207a65726f00000000000060448201526064016104e0565b61ffff80168260a001518281518110612d0057612d00614bbf565b60200260200101511115612d4a5760405162461bcd60e51b81526020600482015260116024820152702932a7232a1d1d3737ba103ab4b73a189b60791b60448201526064016104e0565b60008260c001518281518110612d6257612d62614bbf565b602002602001015160ff1611612d8a5760405162461bcd60e51b81526004016104e090614896565b60ff80168260c001518281518110612da457612da4614bbf565b602002602001015160ff161115612df05760405162461bcd60e51b815260206004820152601060248201526f0a4ca9c8ca87474dcdee840ead2dce8760831b60448201526064016104e0565b60008260e001518281518110612e0857612e08614bbf565b602002602001015160e01c63ffffffff1611610e205760405162461bcd60e51b81526004016104e0906148cd565b612e4381602001516139e2565b604081015160ff1615612e935760405162461bcd60e51b815260206004820152601860248201527752654e46543a3a6475726174696f6e206e6f74207a65726f60401b60448201526064016104e0565b60608101516001600160e01b0319161561167f5760405162461bcd60e51b815260206004820152601a60248201527f52654e46543a3a72656e74207072696365206e6f74207a65726f00000000000060448201526064016104e0565b60008160ff161161167f5760405162461bcd60e51b815260206004820152601860248201527f52654e46543a3a746f6b656e2069732073656e74696e656c000000000000000060448201526064016104e0565b6060612f4e8484614b35565b6001600160401b03811115612f6557612f65614bd5565b604051908082528060200260200182016040528015612f8e578160200160208202803683370190505b509050835b83811015612ff85785612fa68483614b35565b81518110612fb657612fb6614bbf565b6020026020010151828683612fcb9190614b35565b81518110612fdb57612fdb614bbf565b602090810291909101015280612ff081614b78565b915050612f93565b50949350505050565b6000604086015186518151811061301a5761301a614bbf565b6020026020010151600181111561303357613033614ba9565b14156130f957606085015185518151811061305057613050614bbf565b60200260200101516001600160a01b03166323b872dd8585886080015189600001518151811061308257613082614bbf565b60209081029190910101516040516001600160e01b031960e086901b1681526001600160a01b0393841660048201529290911660248301526044820152606401600060405180830381600087803b1580156130dc57600080fd5b505af11580156130f0573d6000803e3d6000fd5b50505050610501565b606085015185518151811061311057613110614bbf565b60200260200101516001600160a01b0316632eb2c2d6858585856040518563ffffffff1660e01b81526004016131499493929190614727565b600060405180830381600087803b15801561316357600080fd5b505af1158015613177573d6000803e3d6000fd5b505050505050505050565b61318c8282613847565b610e205760405162461bcd60e51b815260206004820152601d60248201527f52654e46543a3a72657475726e2064617465206e6f742070617373656400000060448201526064016104e0565b60008260c0015160038111156131f0576131f0614ba9565b6000805460405163c6ee427f60e01b815260ff8416600482015292935090916001600160a01b039091169063c6ee427f9060240160206040518083038186803b15801561323c57600080fd5b505afa158015613250573d6000803e3d6000fd5b505050506040513d601f19601f8201168201806040525081019061327491906140a6565b90506000816001600160a01b031663313ce5676040518163ffffffff1660e01b815260040160206040518083038186803b1580156132b157600080fd5b505afa1580156132c5573d6000803e3d6000fd5b505050506040513d601f19601f820116820180604052508101906132e99190614675565b60ff16905060006132fb82600a614a4b565b9050600061330d876060015183613701565b866060015161ffff166133209190614af3565b90506000866020015160ff16826133379190614af3565b9050600060065460001461336657613363828860ff16600381111561335e5761335e614ba9565b6138d5565b90505b6020890151613177906133798385614b35565b6001600160a01b03891691906139b2565b806001600160a01b031682602001516001600160a01b031614610e205760405162461bcd60e51b81526020600482015260116024820152702932a7232a1d1d3737ba103632b73232b960791b60448201526064016104e0565b80516133ee906139e2565b602081015160ff161561343e5760405162461bcd60e51b815260206004820152601860248201527752654e46543a3a6475726174696f6e206e6f74207a65726f60401b60448201526064016104e0565b604081015163ffffffff161561167f5760405162461bcd60e51b815260206004820152601960248201527f52654e46543a3a72656e746564206174206e6f74207a65726f0000000000000060448201526064016104e0565b83602001516001600160a01b0316816001600160a01b031614156134fc5760405162461bcd60e51b815260206004820152601860248201527f52654e46543a3a63616e742072656e74206f776e206e6674000000000000000060448201526064016104e0565b60ff8016836101400151838151811061351757613517614bbf565b602002602001015160ff1611156135635760405162461bcd60e51b815260206004820152601060248201526f0a4ca9c8ca87474dcdee840ead2dce8760831b60448201526064016104e0565b6000836101400151838151811061357c5761357c614bbf565b602002602001015160ff16116135a45760405162461bcd60e51b81526004016104e090614896565b61ffff801683610160015183815181106135c0576135c0614bbf565b6020026020010151111561360a5760405162461bcd60e51b81526020600482015260116024820152702932a7232a1d1d3737ba103ab4b73a189b60791b60448201526064016104e0565b6000836101600151838151811061362357613623614bbf565b6020026020010151116136785760405162461bcd60e51b815260206004820152601960248201527f52654e46543a3a72656e74416d6f756e74206973207a65726f0000000000000060448201526064016104e0565b836040015160ff16836101400151838151811061369757613697614bbf565b602002602001015160ff1611156107bf5760405162461bcd60e51b815260206004820152602860248201527f52654e46543a3a72656e74206475726174696f6e206578636565647320616c6c6044820152670deeecac840dac2f60c31b60648201526084016104e0565b600061370d8383613a39565b60f083901c61ffff60e085901c166000613729612710866149e6565b905061270f8361ffff16111561373f5761270f92505b61270f8261ffff1611156137535761270f91505b60006137638661ffff8616614af3565b905060006137758361ffff8616614af3565b9050600061378382846149ce565b9998505050505050505050565b6040516001600160a01b03808516602483015283166044820152606481018290526107bf9085906323b872dd60e01b906084015b60408051601f198184030181529190526020810180516001600160e01b03166001600160e01b031990931692909217909152613aca565b6001600160a01b03811661167f5760405162461bcd60e51b815260206004820152601360248201527252654e46543a3a7a65726f206164647265737360681b60448201526064016104e0565b6000826040015163ffffffff1682116138a25760405162461bcd60e51b815260206004820152601860248201527f52654e46543a3a6e6f77206265666f72652072656e746564000000000000000060448201526064016104e0565b62015180836020015160ff166138b89190614af3565b60408401516138cd9063ffffffff1684614b35565b119392505050565b6000600654836138e59190614af3565b90506138f3612710826149e6565b9050600082600381111561390957613909614ba9565b6000805460405163c6ee427f60e01b815260ff8416600482015292935090916001600160a01b039091169063c6ee427f9060240160206040518083038186803b15801561395557600080fd5b505afa158015613969573d6000803e3d6000fd5b505050506040513d601f19601f8201168201806040525081019061398d91906140a6565b6002549091506139aa906001600160a01b038084169116856139b2565b505092915050565b6040516001600160a01b0383166024820152604481018290526129ce90849063a9059cbb60e01b906064016137c4565b6001600160a01b0381161561167f5760405162461bcd60e51b815260206004820152601960248201527f52654e46543a3a6e6f742061207a65726f20616464726573730000000000000060448201526064016104e0565b60e082901c613a815760405162461bcd60e51b815260206004820152601460248201527352654e46543a3a696e76616c696420707269636560601b60448201526064016104e0565b612710811015610e205760405162461bcd60e51b815260206004820152601460248201527352654e46543a3a696e76616c6964207363616c6560601b60448201526064016104e0565b6000613b1f826040518060400160405280602081526020017f5361666545524332303a206c6f772d6c6576656c2063616c6c206661696c6564815250856001600160a01b0316613b9c9092919063ffffffff16565b8051909150156129ce5780806020019051810190613b3d9190614624565b6129ce5760405162461bcd60e51b815260206004820152602a60248201527f5361666545524332303a204552433230206f7065726174696f6e20646964206e6044820152691bdd081cdd58d8d9595960b21b60648201526084016104e0565b6060613bab8484600085613bb5565b90505b9392505050565b606082471015613c165760405162461bcd60e51b815260206004820152602660248201527f416464726573733a20696e73756666696369656e742062616c616e636520666f6044820152651c8818d85b1b60d21b60648201526084016104e0565b6001600160a01b0385163b613c6d5760405162461bcd60e51b815260206004820152601d60248201527f416464726573733a2063616c6c20746f206e6f6e2d636f6e747261637400000060448201526064016104e0565b600080866001600160a01b03168587604051613c89919061470b565b60006040518083038185875af1925050503d8060008114613cc6576040519150601f19603f3d011682016040523d82523d6000602084013e613ccb565b606091505b5091509150613cdb828286613ce6565b979650505050505050565b60608315613cf5575081613bae565b825115613d055782518084602001fd5b8160405162461bcd60e51b81526004016104e0919061482c565b604051806101a00160405280600081526020016000815260200160608152602001606081526020016060815260200160608152602001606081526020016060815260200160608152602001606081526020016060815260200160608152602001606081525090565b600082601f830112613d9857600080fd5b81356020613dad613da883614985565b614955565b80838252828201915082860187848660051b8901011115613dcd57600080fd5b60005b85811015613df5578135613de381614beb565b84529284019290840190600101613dd0565b5090979650505050505050565b600082601f830112613e1357600080fd5b81356020613e23613da883614985565b80838252828201915082860187848660051b8901011115613e4357600080fd5b60005b85811015613df557613e578261401a565b84529284019290840190600101613e46565b600082601f830112613e7a57600080fd5b81356020613e8a613da883614985565b80838252828201915082860187848660051b8901011115613eaa57600080fd5b6000805b86811015613ed657823560028110613ec4578283fd5b85529385019391850191600101613eae565b509198975050505050505050565b600082601f830112613ef557600080fd5b81356020613f05613da883614985565b80838252828201915082860187848660051b8901011115613f2557600080fd5b6000805b86811015613ed657823560048110613f3f578283fd5b85529385019391850191600101613f29565b600082601f830112613f6257600080fd5b81356020613f72613da883614985565b80838252828201915082860187848660051b8901011115613f9257600080fd5b60005b85811015613df557813584529284019290840190600101613f95565b600082601f830112613fc257600080fd5b81356020613fd2613da883614985565b80838252828201915082860187848660051b8901011115613ff257600080fd5b60005b85811015613df557813561400881614c0e565b84529284019290840190600101613ff5565b80356001600160e01b03198116811461403257600080fd5b919050565b600082601f83011261404857600080fd5b81356001600160401b0381111561406157614061614bd5565b614074601f8201601f1916602001614955565b81815284602083860101111561408957600080fd5b816020850160208301376000918101602001919091529392505050565b6000602082840312156140b857600080fd5b8151613bae81614beb565b6000602082840312156140d557600080fd5b8135613bae81614beb565b600080600080600060a086880312156140f857600080fd5b853561410381614beb565b9450602086013561411381614beb565b935060408601356001600160401b038082111561412f57600080fd5b61413b89838a01613f51565b9450606088013591508082111561415157600080fd5b61415d89838a01613f51565b9350608088013591508082111561417357600080fd5b5061418088828901614037565b9150509295509295909350565b600080600080608085870312156141a357600080fd5b84356141ae81614beb565b935060208501356141be81614beb565b92506040850135915060608501356001600160401b038111156141e057600080fd5b6141ec87828801614037565b91505092959194509250565b600080600080600060a0868803121561421057600080fd5b853561421b81614beb565b9450602086013561422b81614beb565b9350604086013592506060860135915060808601356001600160401b0381111561425457600080fd5b61418088828901614037565b60008060006060848603121561427557600080fd5b833561428081614beb565b95602085013595506040909401359392505050565b600080600080608085870312156142ab57600080fd5b84356001600160401b03808211156142c257600080fd5b6142ce88838901613e69565b955060208701359150808211156142e457600080fd5b6142f088838901613d87565b9450604087013591508082111561430657600080fd5b61431288838901613f51565b9350606087013591508082111561432857600080fd5b506141ec87828801613f51565b600080600080600060a0868803121561434d57600080fd5b85356001600160401b038082111561436457600080fd5b61437089838a01613e69565b9650602088013591508082111561438657600080fd5b61439289838a01613d87565b955060408801359150808211156143a857600080fd5b6143b489838a01613f51565b945060608801359150808211156143ca57600080fd5b6143d689838a01613f51565b935060808801359150808211156143ec57600080fd5b5061418088828901613f51565b600080600080600080600060e0888a03121561441457600080fd5b87356001600160401b038082111561442b57600080fd5b6144378b838c01613e69565b985060208a013591508082111561444d57600080fd5b6144598b838c01613d87565b975060408a013591508082111561446f57600080fd5b61447b8b838c01613f51565b965060608a013591508082111561449157600080fd5b61449d8b838c01613f51565b955060808a01359150808211156144b357600080fd5b6144bf8b838c01613fb1565b945060a08a01359150808211156144d557600080fd5b6144e18b838c01613e02565b935060c08a01359150808211156144f757600080fd5b506145048a828b01613ee4565b91505092959891949750929550565b60008060008060008060c0878903121561452c57600080fd5b86356001600160401b038082111561454357600080fd5b61454f8a838b01613e69565b9750602089013591508082111561456557600080fd5b6145718a838b01613d87565b9650604089013591508082111561458757600080fd5b6145938a838b01613f51565b955060608901359150808211156145a957600080fd5b6145b58a838b01613f51565b945060808901359150808211156145cb57600080fd5b6145d78a838b01613fb1565b935060a08901359150808211156145ed57600080fd5b506145fa89828a01613f51565b9150509295509295509295565b60006020828403121561461957600080fd5b8135613bae81614c00565b60006020828403121561463657600080fd5b8151613bae81614c00565b60006020828403121561465357600080fd5b5035919050565b60006020828403121561466c57600080fd5b613bae8261401a565b60006020828403121561468757600080fd5b8151613bae81614c0e565b600081518084526020808501945080840160005b838110156146c2578151875295820195908201906001016146a6565b509495945050505050565b600481106146dd576146dd614ba9565b9052565b60609390931b6bffffffffffffffffffffffff191683526014830191909152603482015260540190565b6000825161471d818460208701614b4c565b9190910192915050565b6001600160a01b0385811682528416602082015260a06040820181905260009061475390830185614692565b82810360608401526147658185614692565b838103608090940193909352505060008152602001949350505050565b86151581526020810186905260ff851660408201526001600160e01b03198416606082015261ffff8316608082015260c08101613cdb60a08301846146cd565b60e08101600289106147d6576147d6614ba9565b8882526001600160a01b038816602083015260ff871660408301526001600160e01b03198616606083015261ffff8581166080840152841660a083015261482060c08301846146cd565b98975050505050505050565b602081526000825180602084015261484b816040850160208701614b4c565b601f01601f19169190910160400192915050565b6020808252601b908201527f52654e46543a3a696e76616c6964206e6674207374616e646172640000000000604082015260600190565b60208082526017908201527f52654e46543a3a6475726174696f6e206973207a65726f000000000000000000604082015260600190565b60208082526019908201527f52654e46543a3a72656e74207072696365206973207a65726f00000000000000604082015260600190565b6020808252600d908201526c14995391950e8e9c185d5cd959609a1b604082015260600190565b60208082526010908201526f2932a7232a1d1d3737ba1030b236b4b760811b604082015260600190565b604051601f8201601f191681016001600160401b038111828210171561497d5761497d614bd5565b604052919050565b60006001600160401b0382111561499e5761499e614bd5565b5060051b60200190565b600061ffff8083168185168083038211156149c5576149c5614b93565b01949350505050565b600082198211156149e1576149e1614b93565b500190565b600082614a0357634e487b7160e01b600052601260045260246000fd5b500490565b600181815b80851115614a43578160001904821115614a2957614a29614b93565b80851615614a3657918102915b93841c9390800290614a0d565b509250929050565b6000613bae8383600082614a61575060016104b7565b81614a6e575060006104b7565b8160018114614a845760028114614a8e57614aaa565b60019150506104b7565b60ff841115614a9f57614a9f614b93565b50506001821b6104b7565b5060208310610133831016604e8410600b8410161715614acd575081810a6104b7565b614ad78383614a08565b8060001904821115614aeb57614aeb614b93565b029392505050565b6000816000190483118215151615614b0d57614b0d614b93565b500290565b600061ffff83811690831681811015614b2d57614b2d614b93565b039392505050565b600082821015614b4757614b47614b93565b500390565b60005b83811015614b67578181015183820152602001614b4f565b838111156107bf5750506000910152565b6000600019821415614b8c57614b8c614b93565b5060010190565b634e487b7160e01b600052601160045260246000fd5b634e487b7160e01b600052602160045260246000fd5b634e487b7160e01b600052603260045260246000fd5b634e487b7160e01b600052604160045260246000fd5b6001600160a01b038116811461167f57600080fd5b801515811461167f57600080fd5b60ff8116811461167f57600080fdfea2646970667358221220df3f775fae24c35fbf23715f9f95b7b0a1f360fe00334e337a86cb3b6999df3f64736f6c63430008070033",
  "linkReferences": {},
  "deployedLinkReferences": {}
}